:020000040800F2
:10000000000002203517000881150008831500083C
:1000100085150008871500088915000800000000F4
:100020000000000000000000000000008B15000828
:100030008D150008000000008F15000891150008BC
:100040008517000885170008851700088517000820
:100050008517000885170008851700088517000810
:100060008517000885170008851700088517000800
:1000700085170008851700088517000899150008DE
:10008000A9150008851700088517000885170008BE
:1000900085170008851700088517000885170008D0
:1000A00085170008851700088517000885170008C0
:1000B00085170008851700088517000885170008B0
:1000C00085170008851700088517000885170008A0
:1000D0008517000885170008851700088517000890
:1000E0008517000885170008851700088517000880
:1000F0008517000885170008851700088517000870
:10010000851700088517000885170008851700085F
:10011000851700088517000885170008851700084F
:10012000851700088517000885170008851700083F
:10013000851700088517000885170008851700082F
:10014000851700088517000885170008B9150008ED
:10015000851700088517000885170008851700080F
:1001600085170008851700088517000885170008FF
:100170008517000885170008851700080000000093
:0801800085170008851700082F
:1001C00010B5054C237833B9044B13B10448AFF391
:1001D00000800123237010BDA80A00200000000049
:1001E00078B9000808B5034B1BB103490348AFF3C6
:1001F000008008BD00000000AC0A002078B90008AB
:1002000053B94AB9002908BF00281CBF4FF0FF317D
:100210004FF0FF3000F074B9ADF1080C6DE904CE79
:1002200000F006F8DDF804E0DDE9022304B07047D1
:100230002DE9F047089E0D4604468846002B4DD117
:100240008A42944668D9B2FA82F252B101FA02F3B4
:10025000C2F1200120FA01F10CFA02FC41EA030884
:1002600094404FEA1C45210CB8FBF5FE1FFA8CF7B1
:1002700005FB1E8341EA03430EFB07F199420BD9AC
:100280001CEB03030EF1FF3080F01E81994240F217
:100290001B81AEF1020E63445B1AA4B2B3FBF5F00E
:1002A00005FB103344EA034400FB07F7A7420AD9D1
:1002B0001CEB040400F1FF3380F00881A74240F2F8
:1002C000058164440238E41B40EA0E4000211EB15F
:1002D000D4400023C6E90043BDE8F0878B4208D92B
:1002E000002E00F0EE800021C6E900050846BDE8BA
:1002F000F087B3FA83F100294AD1AB4202D382429C
:1003000000F2F980841A65EB030301209846002E61
:10031000E2D0C6E90048DFE702B9FFDEB2FA82F2B6
:10032000002A40F09180A1EB0C054FEA1C471FFA10
:100330008CFE0121B5FBF7F307FB1350250C45EAB2
:1003400000450EFB03F0A84208D91CEB050503F19C
:10035000FF3802D2A84200F2CB8043462D1AA4B245
:10036000B5FBF7F007FB105544EA05440EFB00FE11
:10037000A64508D91CEB040400F1FF3502D2A645BE
:1003800000F2BB802846A4EB0E0440EA03409EE73F
:10039000C1F120078B4022FA07FC4CEA030C20FA3B
:1003A00007F405FA01F31C43FD404FEA1C4900FA2B
:1003B00001F3B5FBF9F8200C1FFA8CFE09FB185568
:1003C00040EA054508FB0EF0A84202FA01F20BD9FB
:1003D0001CEB050508F1FF3A80F08880A84240F246
:1003E0008580A8F1020865442D1AA4B2B5FBF9F086
:1003F00009FB105544EA054500FB0EFEAE4508D941
:100400001CEB050500F1FF346CD2AE456AD9023809
:10041000654440EA0840A0FB0294A5EB0E05A54206
:10042000C846A64656D353D05EB1B3EB080265EB7F
:100430000E0505FA07F722FA01F3CD401F43C6E97E
:1004400000750021BDE8F087C2F1200320FA03F116
:100450000CFA02FC25FA03F395400D434FEA1C47C2
:100460001FFA8CFEB3FBF7F107FB11302B0C43EAAC
:10047000004301FB0EF0984204FA02F408D91CEB89
:10048000030301F1FF382FD298422DD9023963447A
:100490001B1AADB2B3FBF7F007FB103345EA034577
:1004A00000FB0EF3AB4208D91CEB050500F1FF3849
:1004B00016D2AB4214D902386544ED1A40EA014124
:1004C00038E73146304607E78646E5E61846FAE65D
:1004D0004B45A9D2B9EB020864EB0C0E0138A3E737
:1004E0004046EAE7204694E74146D1E7D0467BE71D
:1004F000023B654432E7084609E76444023842E7B4
:10050000704700BF00000000000000000000000075
:1005100001F0FF01102A2BDB10F0070F08D010F8B4
:10052000013B013A8B422DD010F0070F42B3F6D1B8
:10053000F0B441EA012141EA014122F007047FF0D1
:1005400000070023F0E80256083C85EA010586EA28
:10055000010685FA47F5A3FA87F586FA47F6A5FA64
:1005600087F68EB9EED1F0BC01F0FF0102F0070270
:1005700032B110F8013B013A83EA010313B1F8D11B
:100580000020704701387047002D06BF35460338FC
:10059000073815F0010F07D1013015F4807F02BF35
:1005A000013015F4C03F0130F0BC0138704700BF86
:1005B000844641EA000313F003036DD1403A41D36E
:1005C00051F8043B40F8043B51F8043B40F8043B2D
:1005D00051F8043B40F8043B51F8043B40F8043B1D
:1005E00051F8043B40F8043B51F8043B40F8043B0D
:1005F00051F8043B40F8043B51F8043B40F8043BFD
:1006000051F8043B40F8043B51F8043B40F8043BEC
:1006100051F8043B40F8043B51F8043B40F8043BDC
:1006200051F8043B40F8043B51F8043B40F8043BCC
:1006300051F8043B40F8043B51F8043B40F8043BBC
:10064000403ABDD2303211D351F8043B40F8043B5C
:1006500051F8043B40F8043B51F8043B40F8043B9C
:1006600051F8043B40F8043B103AEDD20C3205D36C
:1006700051F8043B40F8043B043AF9D2043208D064
:10068000D2071CBF11F8013B00F8013B01D30B88D6
:1006900003806046704700BF082A13D38B078DD0B4
:1006A00010F003038AD0C3F10403D21ADB071CBF86
:1006B00011F8013B00F8013B80D331F8023B20F8F0
:1006C000023B7BE7043AD9D3013A11F8013B00F829
:1006D000013BF9D20B7803704B7843708B788370B1
:1006E00060467047000000000000000000000000AD
:1006F00000000000000000000000000000000000FA
:1007000090F800F06DE9024520F007016FF0000C51
:1007100010F0070491F820F040F049804FF00004F9
:100720006FF00700D1E9002391F840F000F10800D4
:1007300082FA4CF2A4FA8CF283FA4CF3A2FA8CF30C
:100740004BBBD1E9022382FA4CF200F10800A4FA73
:100750008CF283FA4CF3A2FA8CF3E3B9D1E90423C7
:1007600082FA4CF200F10800A4FA8CF283FA4CF3FE
:10077000A2FA8CF37BB9D1E9062301F1200182FAB8
:100780004CF200F10800A4FA8CF283FA4CF3A2FABE
:100790008CF3002BC6D0002A04BF04301A4612BACC
:1007A000B2FA82F2FDE8024500EBD2007047D1E9CF
:1007B000002304F00305C4F100004FEAC50514F05E
:1007C000040F91F840F00CFA05F562EA05021CBF2F
:1007D00063EA050362464FF00004A9E781F0004197
:1007E00002E000BF83F0004330B54FEA41044FEA16
:1007F000430594EA050F08BF90EA020F1FBF54EAB1
:10080000000C55EA020C7FEA645C7FEA655C00F04C
:10081000E2804FEA5454D4EB5555B8BF6D420CDD1D
:100820002C4480EA020281EA030382EA000083EAA0
:10083000010180EA020281EA0303362D88BF30BD40
:1008400011F0004F4FEA01314FF4801C4CEA113196
:1008500002D0404261EB410113F0004F4FEA0333F5
:100860004CEA133302D0524263EB430394EA050F80
:1008700000F0A780A4F10104D5F1200E0DDB02FAEF
:100880000EFC22FA05F2801841F1000103FA0EF283
:10089000801843FA05F359410EE0A5F120050EF149
:1008A000200E012A03FA0EFC28BF4CF0020C43FA7A
:1008B00005F3C01851EBE37101F0004507D54FF087
:1008C000000EDCF1000C7EEB00006EEB0101B1F5D7
:1008D000801F1BD3B1F5001F0CD349085FEA30001D
:1008E0004FEA3C0C04F101044FEA445212F5800F28
:1008F00080F09A80BCF1004F08BF5FEA500C50F1C5
:10090000000041EB045141EA050130BD5FEA4C0CA7
:10091000404141EB0101013C28BFB1F5801FE9D204
:1009200091F0000F04BF01460020B1FA81F308BF27
:100930002033A3F10B03B3F120020CDA0C3208DDF3
:1009400002F1140CC2F10C0201FA0CF021FA02F1CE
:100950000CE002F11402D8BFC2F1200C01FA02F13E
:1009600020FA0CFCDCBF41EA0C019040E41AA2BF63
:1009700001EB0451294330BD6FEA04041F3C1CDA2B
:100980000C340EDC04F11404C4F1200220FA04F04B
:1009900001FA02F340EA030021FA04F345EA0301F5
:1009A00030BDC4F10C04C4F1200220FA02F001FAB7
:1009B00004F340EA0300294630BD21FA04F0294639
:1009C00030BD94F0000F83F4801306BF81F48011D2
:1009D0000134013D4EE77FEA645C18BF7FEA655C45
:1009E00029D094EA050F08BF90EA020F05D054EA17
:1009F000000C04BF1946104630BD91EA030F1EBF1C
:100A00000021002030BD5FEA545C05D1400049411F
:100A100028BF41F0004130BD14F580043CBF01F512
:100A2000801130BD01F0004545F0FE4141F47001F8
:100A30004FF0000030BD7FEA645C1ABF19461046D3
:100A40007FEA655C1CBF0B46024650EA013406BFD4
:100A500052EA033591EA030F41F4002130BD00BF93
:100A600090F0000F04BF0021704730B54FF4806450
:100A700004F132044FF000054FF0000150E700BFD1
:100A800090F0000F04BF0021704730B54FF4806430
:100A900004F1320410F0004548BF40424FF000011D
:100AA0003EE700BF42004FEAE2014FEA31014FEA60
:100AB00002701FBF12F07F4393F07F4F81F06051AF
:100AC000704732F07F4208BF704793F07F4F04BFFA
:100AD00041F40021704730B54FF4607401F00045D7
:100AE00021F000411CE700BF50EA010208BF704737
:100AF00030B54FF000050AE050EA010208BF704728
:100B000030B511F0004502D5404261EB41014FF490
:100B1000806404F132045FEA915C3FF4D8AE4FF098
:100B200003025FEADC0C18BF03325FEADC0C18BF7B
:100B3000033202EBDC02C2F1200300FA03FC20FACC
:100B400002F001FA03FE40EA0E0021FA02F1144419
:100B5000BDE600BF70B54FF0FF0C4CF4E06C1CEA32
:100B600011541DBF1CEA135594EA0C0F95EA0C0FA3
:100B700000F0DEF82C4481EA030621EA4C5123EA16
:100B80004C5350EA013518BF52EA033541F4801145
:100B900043F4801338D0A0FB02CE4FF00005E1FBF8
:100BA00002E506F00042E0FB03E54FF00006E1FB42
:100BB00003569CF0000F18BF4EF0010EA4F1FF0485
:100BC000B6F5007F64F5407404D25FEA4E0E6D41C5
:100BD00046EB060642EAC62141EA55514FEAC520D6
:100BE00040EA5E504FEACE2EB4F1FD0C88BFBCF552
:100BF000E06F1ED8BEF1004F08BF5FEA500E50F103
:100C0000000041EB045170BD06F0004646EA0101C8
:100C100040EA020081EA0301B4EB5C04C2BFD4EBFA
:100C20000C0541EA045170BD41F480114FF0000EF3
:100C3000013C00F3AB8014F1360FDEBF002001F061
:100C4000004170BDC4F10004203C35DA0C341BDCDB
:100C500004F11404C4F1200500FA05F320FA04F0AD
:100C600001FA05F240EA020001F0004221F00041E1
:100C700010EBD37021FA04F642EB06015EEA430E54
:100C800008BF20EAD37070BDC4F10C04C4F1200584
:100C900000FA04F320FA05F001FA04F240EA020037
:100CA00001F0004110EBD37041F100015EEA430E08
:100CB00008BF20EAD37070BDC4F1200500FA05F228
:100CC0004EEA020E20FA04F301FA05F243EA0203A7
:100CD00021FA04F001F0004121FA04F220EA0200B6
:100CE00000EBD3705EEA430E08BF20EAD37070BDFC
:100CF00094F0000F0FD101F00046400041EB0101DC
:100D000011F4801F08BF013CF7D041EA060195F0BD
:100D1000000F18BF704703F00046520043EB030377
:100D200013F4801F08BF013DF7D043EA0603704764
:100D300094EA0C0F0CEA135518BF95EA0C0F0CD06F
:100D400050EA410618BF52EA4306D1D181EA0301B5
:100D500001F000414FF0000070BD50EA410606BFAF
:100D60001046194652EA430619D094EA0C0F02D1F4
:100D700050EA013613D195EA0C0F05D152EA033639
:100D80001CBF104619460AD181EA030101F0004157
:100D900041F0FE4141F470014FF0000070BD41F0A0
:100DA000FE4141F4780170BD70B54FF0FF0C4CF47A
:100DB000E06C1CEA11541DBF1CEA135594EA0C0F99
:100DC00095EA0C0F00F0A7F8A4EB050481EA030EE6
:100DD00052EA03354FEA013100F088804FEA0333CD
:100DE0004FF0805545EA131343EA12634FEA02229B
:100DF00045EA111545EA10654FEA00260EF000415C
:100E00009D4208BF964244F1FD0404F5407402D2AD
:100E10005B084FEA3202B61A65EB03055B084FEA3E
:100E200032024FF480104FF4002CB6EB020E75EB3B
:100E3000030E22BFB61A754640EA0C005B084FEA63
:100E40003202B6EB020E75EB030E22BFB61A7546E0
:100E500040EA5C005B084FEA3202B6EB020E75EB2B
:100E6000030E22BFB61A754640EA9C005B084FEAA3
:100E70003202B6EB020E75EB030E22BFB61A7546B0
:100E800040EADC0055EA060E18D04FEA051545EA9F
:100E900016754FEA06164FEAC30343EA52734FEA48
:100EA000C2025FEA1C1CC0D111F4801F0BD141EAC1
:100EB00000014FF000004FF0004CB6E711F4801F26
:100EC00004BF01430020B4F1FD0C88BFBCF5E06F06
:100ED0003FF6AFAEB5EB030C04BFB6EB020C5FEA16
:100EE000500C50F1000041EB045170BD0EF0004E6B
:100EF0004EEA113114EB5C04C2BFD4EB0C0541EA9D
:100F0000045170BD41F480114FF0000E013C90E699
:100F100045EA060E8DE60CEA135594EA0C0F08BF5D
:100F200095EA0C0F3FF43BAF94EA0C0F0AD150EA5C
:100F300001347FF434AF95EA0C0F7FF425AF1046EF
:100F400019462CE795EA0C0F06D152EA03353FF417
:100F5000FDAE1046194622E750EA410618BF52EA94
:100F600043067FF4C5AE50EA41047FF40DAF52EA68
:100F700043057FF4EBAE12E74FF0FF3C06E000BF05
:100F80004FF0010C02E000BF4FF0010C4DF804CD12
:100F90004FEA410C7FEA6C5C4FEA430C18BF7FEAD2
:100FA0006C5C1BD001B050EA410C0CBF52EA430C00
:100FB00091EA030F02BF90EA020F0020704710F180
:100FC000000F91EA030F58BF994208BF90422CBF0F
:100FD000D8176FEAE37040F0010070474FEA410C08
:100FE0007FEA6C5C02D150EA013C07D14FEA430C26
:100FF0007FEA6C5CD6D152EA033CD3D05DF8040B97
:10100000704700BF8446104662468C4619466346C8
:1010100000E000BF01B5FFF7B7FF002848BF10F19F
:10102000000F01BD4DF808EDFFF7F4FF0CBF0120E4
:1010300000205DF808FB00BF4DF808EDFFF7EAFF60
:1010400034BF012000205DF808FB00BF4DF808ED1B
:10105000FFF7E0FF94BF012000205DF808FB00BF10
:101060004DF808EDFFF7CEFF94BF012000205DF89A
:1010700008FB00BF4DF808EDFFF7C4FF34BF0120A7
:1010800000205DF808FB00BF4FEA410C7FEA6C5C72
:1010900002D150EA013C0AD14FEA430C7FEA6C5C72
:1010A00002D152EA033C02D14FF0000070474FF0EA
:1010B000010070474FEA410212F5001215D211D516
:1010C0006FF47873B3EB625212D94FEAC12343F045
:1010D000004343EA505311F0004F23FA02F018BFC7
:1010E000404270474FF00000704750EA013005D190
:1010F00011F0004008BF6FF0004070474FF0000053
:10110000704700BF10B582B0002401940D4B1A6BDC
:1011100042F400121A631B6B03F400130193019B4A
:10112000224621460F2000F0A7FB0F2000F0DCFB39
:1011300022462146102000F09FFB102000F0D4FB37
:1011400002B010BD0038024030B58BB000240594C9
:1011500006940794089409940094234B1A6B42F068
:1011600020021A631A6B02F020020092009A019486
:101170001A6B42F080021A631A6B02F0800201922D
:10118000019A02941A6B42F004021A631A6B02F07D
:1011900004020292029A03941A6B42F001021A634B
:1011A0001A6B02F001020392039A04941A6B42F044
:1011B00002021A631B6B03F002030493049B0B4DA2
:1011C00022464FF4C061284600F05EFE4FF4C06333
:1011D0000593012306930794089405A9284600F077
:1011E00061FD0BB030BD00BF00380240001402406A
:1011F00008B50C480C4B03604FF4007343600023A8
:1012000083600322C26003614BF6803242618361D6
:10121000C361036200F048FE00B908BD00F0F2F8B7
:10122000FBE700BF840B00200038004008B50C48E5
:101230000C4B03604FF40073436000238360032270
:10124000C26003614BF6803242618361C361036215
:1012500000F02AFE00B908BD00F0D4F8FBE700BF9B
:10126000CC0B0020003C0040F0B58DB004460023BC
:101270000793089309930A930B930368574A934281
:1012800004D0574A934255D00DB0F0BD00250195CA
:10129000544B1A6C42F480421A641A6C02F4804275
:1012A0000192019A02951A6B42F004021A631A6BBA
:1012B00002F004020292029A03951A6B42F00202B3
:1012C0001A631B6B03F002030393039B082307932A
:1012D0000227089705260B9607A9434800F0E2FC71
:1012E0004FF4A0530793089709950A950B9607A901
:1012F0003E4800F0D7FC3E483E4B0360456040232B
:101300008360C5604FF4806303614FF48053436191
:101310004FF4804383614FF48073C361056245627B
:1013200000F06CFB18B9324BA3639C63ACE700F090
:1013300069F8F8E7002504952A4B1A6C42F400423C
:101340001A641A6C02F400420492049A05951A6B0E
:1013500042F001021A631A6B02F001020592059A2B
:1013600006951A6B42F004021A631B6B03F0040328
:101370000693069B102307930227089706260B96D1
:1013800007A91D4800F08EFC4FF4A053079308975F
:1013900009950A950B9607A9134800F083FC174896
:1013A000174B0360456040238360C5604FF4806342
:1013B00003614FF4805343614FF4804383614FF4E2
:1013C0008073C3610562456200F018FB18B90B4BCE
:1013D000A3639C6358E700F015F8F8E70038004075
:1013E000003C004000380240000802400004024077
:1013F000C40A00207060024000000240240B00205C
:101400008860024072B6FEE700B595B03022002138
:1014100008A804F05DFB002303930493059306934F
:1014200007930193214A116C41F080511164126CB1
:1014300002F080520192019A02931D4B1A6842F405
:1014400080421A601B6803F480430293029B0123CD
:1014500008934FF48033099302230E934FF48002D4
:101460000F92192210924FF4A8721192129307232F
:10147000139308A801F050FE98B90F230393022399
:101480000493002305934FF4A05306934FF4805325
:101490000793052103A802F08DF820B915B05DF877
:1014A00004FBFFF7AFFFFFF7ADFF00BF00380240BE
:1014B0000070004000B585B00023009301930293B3
:1014C0000393012300934FF4827301930223029349
:1014D000684602F025F910B905B05DF804FBFFF786
:1014E00091FF000000B589B000F074F9FFF78CFFA0
:1014F000FFF7E0FFFFF728FEFFF704FEFFF778FE97
:10150000FFF794FE04F018F81021684600F0D4F8B4
:1015100009E00A4800F0B8F81021684600F0CCF85D
:10152000642000F083F94FF48061054800F0B2FCBC
:10153000044B1B78012BECD0F2E700BF90B90008F8
:10154000001402400400002082B0002100910B4BE7
:101550005A6C42F480425A645A6C02F480420092FF
:10156000009A01911A6C42F080521A641B6C03F0CD
:1015700080530193019B02B0704700BF00380240C6
:10158000FEE7FEE7FEE7FEE7FEE7704770477047BD
:1015900008B500F039F908BD08B5024800F094FA22
:1015A00008BD00BFC40A002008B5024800F08CFA4C
:1015B00008BD00BF240B002008B5024801F0A3FAC3
:1015C00008BD00BF042900200120704708B504F0C1
:1015D00055FA162303604FF0FF3008BD08B54FF0F1
:1015E000FF31FFF7F3FFFEE770B50C461646002506
:1015F00006E0AFF30080214601F8010B01350C46EF
:10160000B542F6DB304670BD70B50C461646002577
:1016100004E014F8010BAFF300800135B542F8DBAC
:10162000304670BD4FF0FF3070474FF400534B60B1
:1016300000207047012070470020704710B5034616
:101640000C4A0D490D48006840B10C48006803443D
:10165000521A934206D8094A136010BD0748084C35
:101660000460F2E704F00AFA0C2303604FF0FF3045
:10167000F3E700BF0000022000050000140C00206A
:1016800050300020704700000FB410B582B004AB9A
:1016900053F8042B0193074C4FF40061204604F0EB
:1016A00069FA81B2204603F0CFFF02B0BDE81040D6
:1016B00004B07047041F0020034B1860034B1980CF
:1016C000034B00221A7070471C140020180C0020D5
:1016D00004000020002305E011F803C000F803C057
:1016E00001339BB29342F7D3002304E09818085CBF
:1016F000C85401339BB203480088801A8342F5DB4B
:10170000704700BF1A0C002010B5094B1C88131934
:10171000B3F5006F0BDC002307E003EB040C10F8BB
:1017200003E001F80CE001339BB29342F5D310BD06
:101730001A0C0020DFF834D0FFF7A4FF0C480D4945
:101740000D4A002302E0D458C4500433C4188C421C
:10175000F9D30A4A0A4C002301E013600432A24282
:10176000FBD304F091F9FFF7BDFE704700000220A3
:1017700000000020A80A002014BE0008A80A0020CB
:1017800050300020FEE7000010B504460E4B1878DC
:101790004FF47A73B3FBF0F30C4A1068B0FBF3F02C
:1017A00000F0B0F868B90F2C01D901200AE000223E
:1017B00021464FF0FF3000F05FF8054B1C60002021
:1017C00000E0012010BD00BF050000200000002047
:1017D0000800002008B50B4B1A6842F400721A602A
:1017E0001A6842F480621A601A6842F480721A60C1
:1017F000032000F02FF80F20FFF7C6FFFFF7A4FE2D
:10180000002008BD003C0240034A1168034B1B78CE
:101810000B441360704700BF201400200500002017
:10182000014B1868704700BF2014002038B50446EB
:10183000FFF7F6FF0546B4F1FF3F02D0044B1B78DB
:101840001C44FFF7EDFF401BA042FAD338BD00BF98
:1018500005000020074AD36823F4E0631B041B0C37
:10186000000200F4E060034343F0BF6343F400333D
:10187000D360704700ED00E000B5194BDB68C3F39F
:101880000223C3F1070CBCF1040F28BF4FF0040C76
:1018900003F1040EBEF1060F18D9033B4FF0FF3ED3
:1018A0000EFA0CFC21EA0C0199400EFA03F322EA2D
:1018B0000303194300280BDB0901C9B200F16040A2
:1018C00000F5614080F800135DF804FB0023E5E7B4
:1018D00000F00F000901C9B2024B1954F4E700BF30
:1018E00000ED00E014ED00E0002807DB00F01F022F
:1018F000400901239340024A42F82030704700BF5C
:1019000000E100E00138B0F1807F0BD24FF0E0231E
:101910005861054AF02182F82310002098610722BF
:101920001A6170470120704700ED00E010B40368B1
:10193000D9B210390B4AA2FB014212090A4CA25C2F
:10194000C2655F2908D923F47F7323F003030433AE
:101950008365806D10BC704723F47F7323F003030D
:101960008365F6E7ABAAAAAAB0B90008836A8269C0
:1019700092B9012B0AD0022B02D00BB10020704784
:10198000C36A13F0807F28D100207047C36AB3F187
:10199000C07F24D000207047B2F5005F09D0022B31
:1019A00025D9032B25D1C36A13F0807F23D10020D2
:1019B0007047032B03D8DFE803F01404140A002057
:1019C0007047C36A13F0807F0DD100207047C36A4F
:1019D000B3F1C07F09D0002070470120704701207B
:1019E0007047012070470120704701207047012097
:1019F00070470020704701207047000070B5044612
:101A0000FFF70EFF002C5BD00546022384F835302B
:101A1000002384F834302268136823F00103136034
:101A200023681A6812F0010F0AD0FFF7F9FE431B72
:101A3000052BF5D920236365032084F8350070BD9C
:101A40001A68204810406168A2680A43E1680A43A6
:101A500021690A4361690A43A1690A43E1690A43AA
:101A6000216A0A430243616A04291ED01A6026686B
:101A7000756925F00705636A1D43042B07D1A36A26
:101A80001D43E36A1BB12046FFF770FF90B97561F3
:101A90002046FFF74BFFE26D3F2393408360002019
:101AA0006065012384F83530C9E7E16A206B0143A2
:101AB0000A43DBE740236365012084F83500BEE775
:101AC0000120BCE73F8010F0F0B583B0044600234E
:101AD0000193724B1D68724BA3FB0535AD0A876DF0
:101AE0003E68C26D08239340334210D003681A68E1
:101AF00012F0040F0BD01A6822F004021A60C26DB3
:101B000008239340BB60436D43F001034365E26DDE
:101B100001239340334209D02268526912F0800FAA
:101B200004D0BB60636D43F002036365E26D042380
:101B30009340334209D02268126812F0020F04D099
:101B4000BB60636D43F004036365E26D1023934053
:101B5000334224D02268126812F0080F1FD0BB60F5
:101B600023681A6812F4802F0DD01B6813F4002F1D
:101B700004D1236C9BB12046984710E0A36C73B14D
:101B8000204698470BE01A6812F4807F03D11A6848
:101B900022F008021A60236C0BB120469847E26DD0
:101BA00020239340334255D02268126812F0100F60
:101BB00050D0BB6094F83530DBB2052B0ED02368D3
:101BC0001A6812F4802F33D01B6813F4002F2AD127
:101BD000636C002B3ED0204698473BE02268136898
:101BE00023F0160313602268536923F080035361C6
:101BF000236CA3B12268136823F008031360E26D1D
:101C00003F239340BB60012384F83530002384F8E0
:101C10003430236D002B3FD0204698473CE0A36C26
:101C2000002BE7D1EBE7E36BA3B12046984711E027
:101C30001A6812F4807F09D11A6822F010021A6023
:101C4000012384F83530002384F83430E36B0BB182
:101C500020469847636DFBB1636D13F0010F17D0F9
:101C6000052384F835302268136823F001031360DC
:101C7000019B01330193AB4204D823681B6813F026
:101C8000010FF5D1012384F83530002384F8343076
:101C9000E36C0BB12046984703B0F0BD0000002074
:101CA000B5814E1B00230F2B00F2E48070B582B08B
:101CB00060E085685E000324B44025EA0405CC6832
:101CC000B4402C438460456825EA02054C68C4F39F
:101CD00000129A402A4342605AE0DC08083450F867
:101CE000246003F0070295000F22AA4026EA020EA4
:101CF0000A69AA4042EA0E0240F824205CE007226A
:101D000000E0002202FA0EF22A4302345A4D45F84E
:101D100024205A4A94686FEA0C0224EA0C054E68A3
:101D200016F4801F01D04CEA0405544CA560E46809
:101D300002EA04054E6816F4001F01D04CEA0405BF
:101D40004E4CE560646802EA04054E6816F4003FF4
:101D500001D04CEA0405494C6560246822404D6876
:101D600015F4803F01D04CEA0402444C2260013358
:101D70000F2B7DD801229A400C6804EA020C32EA4B
:101D80000404F4D14C6804F00304013C012C90D904
:101D90004A6802F00302032A09D0C4685D000322E6
:101DA000AA4024EA02048A68AA402243C2604A6820
:101DB00002F00302022A90D004684FEA430E032285
:101DC00002FA0EF224EA02044A6802F0030202FA5E
:101DD0000EF2224302604A6812F4403FC7D000224C
:101DE0000192274A546C44F480445464526C02F4C7
:101DF00080420192019A9C08A51C1F4A52F8255066
:101E000003F003024FEA820E0F2202FA0EF225EAD5
:101E100002051C4A90423FF474AF02F58062904282
:101E20001AD002F58062904218D002F5806290428A
:101E300016D002F58062904214D002F58062904282
:101E400012D002F58062904210D002F5806290427A
:101E50003FF455AF082255E7012253E7022251E72C
:101E600003224FE704224DE705224BE7062249E70C
:101E700002B070BD704700BF00380140003C014017
:101E800000380240000002400AB181617047090435
:101E900081617047436901EA030221EA030141EAD3
:101EA0000241816170470000002800F0BF8038B512
:101EB000044690F84130002B51D0022284F8412092
:101EC0002168CB6923F47B6323F00F03CB61236884
:101ED0001A626369934263D0E368002B46D11025F0
:101EE000A368202B00D86D00012001F0C3FC2369FA
:101EF000B3F5007F3CD0B0FBF5F000EB8000430071
:101F00006069B3FBF0F30533494AA2FB0323C3F333
:101F1000C002C2EBD3035B0811029A1EFD2A41D80E
:101F200022690A43216813430B622168CB6923F4B9
:101F30007B6323F00F036268A0680243E0680243FA
:101F4000A0690243134343F40063CB61236A012B6E
:101F50002ED000206064012384F8413038BD80F821
:101F60004030344B4363FFF77FF9A6E72025B7E7FE
:101F7000E36853B1AD00B0FBF5F000EB8000430027
:101F80006069B3FBF0F30533BEE7ED00B0FBF5F09D
:101F900000EB800043006069B3FBF0F30533B3E767
:101FA0000021BAE7636C43F0100363640120D5E7B6
:101FB000214B63632268214B9A421FD04FF040228D
:101FC000D36923F47B6323F00F03D36122681B4B97
:101FD0009A4215D04FF0402302221A622268174B12
:101FE0009A4210D04FF04025EB699BB26268B2F57F
:101FF000007F0AD0C2B94FF4807008E0104ADFE7D2
:10200000A3F58063E8E70E4DEEE74FF48070B4F877
:1020100008C0A189228B40EA0C0001430A43134304
:1020200043F40063EB6194E70020F0E70120704780
:10203000CDCCCCCCBB200008CD220008003800401D
:1020400000340040704708B5426A03681288DA60BD
:10205000436A02334362438D9BB2013B9BB243858B
:10206000438D9BB203B108BD0268536823F0A003FF
:102070005360012380F84130FFF7E4FFF3E7704736
:1020800008B50368DA68C36A1A80C36A0233C36298
:10209000438E9BB2013B9BB24386438E9BB203B1FE
:1020A00008BD0268536823F060035360012380F881
:1020B0004130FFF7E4FFF3E7704710B584B0044602
:1020C00002689368039390F84130DBB2042B06D08A
:1020D00094F84130DBB2032B2CD004B010BD039B2D
:1020E00013F0010F03D0536813F0400F1FD1039B6F
:1020F00013F0400FECD023685A6812F0200FE7D09D
:102100005A6822F060025A60002301932368DA685B
:1021100001929B680193019B012384F84130636C19
:1021200043F0020363642046FFF7C6FFD0E7FFF7E2
:10213000A7FFDCE7039B13F0020F04D023685B6862
:1021400013F0800F1DD1039B13F0080FC5D0236837
:102150005A6812F0200FC0D05A6822F0A0025A60CC
:102160000023029323689B680293029B012384F857
:102170004130636C43F0040363642046FFF79CFF27
:10218000ABE72046FFF75FFFDDE7704708B5436A1E
:102190009A1C426202681B88D360438D9BB2013B4C
:1021A0009BB24385438D9BB23BB90268536823F0D1
:1021B000A0035360438E9BB203B108BD012380F896
:1021C0004130FFF7E2FFF8E708B50268154B9A4285
:1021D0001CD04FF04023DA68C36A991CC1621A8090
:1021E000438E9BB2013B9BB24386438E9BB263B945
:1021F00002680C4B9A420CD04FF04022536823F0F7
:1022000060035360438D9BB22BB108BDA3F580637F
:10221000E1E7054AF2E7012380F84130FFF7B5FF17
:10222000F3E700BF003800400034004008B5436ABF
:102230009A1C42621A880168134B994218D04FF0D9
:102240004023DA60438D9BB2013B9BB24385438DB3
:102250009BB263B902680C4B9A420CD04FF04022FB
:10226000536823F0A0035360438E9BB22BB108BD8B
:10227000A3F58063E5E7054AF2E7012380F84130E2
:10228000FFF783FFF3E700BF003800400034004051
:1022900008B50368DA68C36A991CC1621A80438E64
:1022A0009BB2013B9BB24386438E9BB23BB9026813
:1022B000536823F060035360438D9BB203B108BDA4
:1022C000012380F84130FFF760FFF8E710B586B0D2
:1022D000044603689A680592704A93426FD04FF0A3
:1022E0004022916804915B6803935368029363688A
:1022F000B3F5007F01D0002B70D1059B13F0020FC6
:1023000003D0039B13F0800F5CD1049B13F0010FEB
:1023100003D0029B13F0400F58D1049B13F0400FE1
:1023200024D0029B13F0200F20D022685B4B9A42EE
:1023300050D04FF04022536823F06003536022686E
:10234000536823F0A0035360002300932368DA68E6
:1023500000929B680093009B012384F84130636CDA
:1023600043F0020363642046FFF7A6FE059B13F0CB
:10237000080F22D0039B13F0200F1ED02268536851
:1023800023F0A00353602268444B9A4224D04FF0BC
:102390004022536823F060035360002301932368B5
:1023A0009B680193019B012384F84130636C43F0E7
:1023B000040363642046FFF77FFE06B010BDA2F55C
:1023C00080628EE72046FFF7E1FE9EE72046FFF79A
:1023D000FBFEA2E7324AAEE7314ADAE7049B13F08C
:1023E000020F03D0029B13F0800F4AD1059B13F01C
:1023F000010F03D0039B13F0400F46D1059B13F050
:10240000400F1CD0039B13F0200F18D02268536894
:1024100023F0600353602268204B9A4239D04FF07A
:102420004022536823F0A0035360012384F8413015
:10243000636C43F0020363642046FFF73DFE049B98
:1024400013F0080FB9D0029B13F0200FB5D022680B
:10245000124B9A421FD04FF04022536823F0A00342
:1024600053602268536823F060035360012384F8AB
:102470004130636C43F0040363642046FFF71CFEA5
:102480009BE72046FFF7D2FEB0E72046FFF700FFAC
:10249000B4E7034AC5E7024ADFE700BF003800405F
:1024A000003400402DE9F04383B0D0F8008001EB08
:1024B000C10300EB83039A6A5B6A9A4254D80746C9
:1024C0000C469B1A01EBC10200EB8202D2699A42D0
:1024D00000D31A4602F103094FEA990915E006F103
:1024E00003094FEA9909BB7904EBC40507EB85059D
:1024F000296A0093B3B2E2B2404601F027FD2B6A8D
:1025000033442B62AB6A3344AB6208EB441303F5EC
:1025100010639B699BB24B4512D304EBC40207EBDB
:102520008202916A536A99420AD24BB15B1A04EB58
:10253000C40207EB8202D6699E42D0D31E46CEE784
:1025400004EBC40007EB80077A6ABB6A9A420FD893
:1025500004F00F040123A340D8F8344824EA03040C
:10256000C8F83448002000E0012003B0BDE8F08343
:102570000020FAE730B583B000287AD00446056819
:1025800090F89534C3B1032384F89534B5F1A04F86
:1025900017D0206801F08CFA237C8DF80030231DC1
:1025A0000ECB206801F0C3F970B1022384F8953492
:1025B0000125284603B030BD80F8943403F0F4F8C8
:1025C000E1E70023A371E4E70021206801F0DFFECA
:1025D000024608B9034617E0022384F89534012522
:1025E000E7E703EBC30104EB8101012048750B759C
:1025F000CB8500200876C861086203EBC30104EBB9
:10260000810148620133DBB220799842E9D816E0B3
:1026100002EBC20304EB8303002183F8551283F815
:10262000542283F85812C3F85C12C3F8601202EB0C
:10263000C20304EB8303C3F864120132D2B29042A6
:10264000E6D8237C8DF80030231D0ECB206801F0E6
:1026500085FA054620B1022384F895340125A8E7C0
:1026600000236374012384F89534206801F04DFE43
:102670009FE701259DE7036890F89424012A1AD06A
:1026800010B50446012280F89424DA6812F0400F55
:1026900002D0427B012A09D0206801F003FA2068A9
:1026A00001F025FE002084F8940410BD9A6B42F4DA
:1026B00080329A63F0E702207047000070B504464C
:1026C0000D460068066C00EB411303F530639A6811
:1026D000A179012911D038498E4256D03DB905EB78
:1026E000C50304EB8303D3F86432002B5ED0E9B258
:1026F000204603F0B9F8002070BD12F0080F09D091
:102700002E498E42F7D912F4004FF4D04FF4004214
:102710009A60F0E712F0200F02D020229A60EAE7D8
:1027200012F0280FE7D125498E4206D912F4004F46
:1027300003D04FF400429A60DDE705EBC50204EBDD
:102740008202D2F874121B69C3F31203CB1AC2F8C7
:1027500068327DB905EBC50204EB8202D2F864222F
:102760006AB105EBC50204EB8202D2F860120B4499
:10277000C2F86032E9B2204603F076F8BBE704F213
:102780009C42012101F044FEF4E712F4004F03D013
:102790004FF400429A60AEE712F0200F01D02022E1
:1027A0009A60E9B2204603F05FF8A4E704F29C4285
:1027B000002101F02DFE9AE70A31544F0A30544FA0
:1027C00038B5044603681D6C03EB4113D3F8081BAE
:1027D0000E4A954207D903F5306311F4004F02D039
:1027E0004FF400429A60204603F036F8074B9D42B2
:1027F00002D9A379012B01D0002038BD04F29C42FC
:102800000121206801F004FEF6E700BF0A30544FB2
:1028100090F89434012B0CD010B50446012380F8B5
:1028200094344174006801F052FD002084F894044F
:1028300010BD0220704738B505468C4611F0800F58
:102840002BD101F00F0E0EEBCE04A40004F514748E
:102850000444211D0EEBCE0E00EB8E0E00208EF8F0
:1028600055020CF00F0C81F800C0C2F30A028A6016
:102870000B714A780AB1A1F81AC0022B1CD095F846
:102880009434012B1BD0012385F89434286801F07F
:1028900040FA002085F8940438BD01F00F0000EBE9
:1028A000C001890010312944043100EBC00005EB60
:1028B000800001244475D4E700234B71DFE7022038
:1028C000EAE710B504460A4611F0800F20D101F066
:1028D0000F0000EBC0039B0003F514732344191D84
:1028E00000EBC00004EB8000002380F8553202F0BA
:1028F0000F020A7094F89434012B18D0012384F845
:102900009434206801F054FA002084F8940410BD37
:1029100001F00F0000EBC0039B0010332344191D8E
:1029200000EBC00004EB800001234375DFE70220C9
:10293000EDE710B5144601F00F0C0CEBCC0189004B
:1029400001F51471014404310CEBCC0E00EB8E0E3A
:10295000CEF86022CEF864320023CEF868328EF8CA
:1029600055328EF854C28279012A04D0006801F0F1
:1029700005FB002010BDCEF87042F7E701F00F0113
:1029800001EBC10100EB8101D1F86802704710B57D
:10299000144601F00F0C0CEBCC01890010310144FE
:1029A00004310CEBCC0E00EB8E0ECEF82020CEF8CE
:1029B00024300023CEF8283001238EF815308EF80D
:1029C00014C082799A4204D0006801F0D7FA00203E
:1029D00010BDCEF83040F7E738B501F00F050279A9
:1029E000AA4238D304460B4611F0800F1FD101EBE9
:1029F000C101890001F514710144043103EBC303E3
:102A000000EB8303002283F8552201238B700D70A5
:102A100094F89434012B20D0012384F89434206856
:102A200001F0FAFB85B1002084F8940438BD05EB71
:102A3000C501890010310144043105EBC50300EBE9
:102A4000830301225A75E0E704F29C42A1792068D1
:102A500001F0DEFCE7E70120E8E70220E6E701F00D
:102A60000F0302799A4230D310B5044611F0800F5B
:102A70001ED103EBC301890001F514710144043137
:102A800003EBC30200EB8202002082F85502002211
:102A90008A700B7094F89434012B18D0012384F8B9
:102AA0009434206801F0E5FB002084F8940410BD04
:102AB00003EBC301890010310144043103EBC3026D
:102AC00000EB820201205075E1E7012070470220EF
:102AD000EDE708B511F0800F0CD101F00F0101EB0B
:102AE000C101890001F5147101440431006801F04D
:102AF000CFF908BD01F00F0101EBC10189001031D0
:102B000001440431F2E72DE9F04F83B00446056833
:102B1000284601F038FC10B103B0BDE8F08F06463E
:102B2000206801F000FC0028F6D005F50067BB68BE
:102B3000C3F30D23C4F8D434206801F0F4FB10F083
:102B4000020F04D02268536903F002035361206826
:102B500001F0E9FB10F0100F13D02268936923F005
:102B600010039361D5F8208008F00F09C8F34343A0
:102B7000022B4BD0062B6FD02268936943F01003D1
:102B80009361206801F0CFFB10F4002F76D120680C
:102B900001F0C9FB10F4802F40F0E080206801F0C4
:102BA000C2FB0028C0F26181206801F0BCFB10F478
:102BB000006F09D0BB6813F0010F40F06E812268EE
:102BC000536903F400635361206801F0ACFB10F417
:102BD000805F40F06681206801F0A5FB10F4005F83
:102BE00040F0B381206801F09EFB10F0080F40F028
:102BF000C481206801F097FB10F0800F00F0D781AE
:102C0000AB6923F08003AB610126C0E147F6F073A6
:102C100018EA030FB0D04FEA181B4FEAC90301931B
:102C200009EBC90A04EB8A0AC8F30A12DAF860123F
:102C3000284601F0C7FACBF30A0BDAF860325B449E
:102C4000CAF86032019B4B4404EB8303D3F868322B
:102C50005B44CAF868328FE7082204F29C41284698
:102C600001F0B0FAC8F30A1809EBC90204EB8202BA
:102C7000D2F868324344C2F868327DE7206801F038
:102C800056FB8046B14635E005EB49130122C3F8F7
:102C9000082B49462046FFF711FD3CE005EB4913A0
:102CA0000822C3F8082B49462046FFF789FD35E086
:102CB00009EBC90304EB830393F85732012B41D08E
:102CC00005EB49130222C3F8082B1AF0200F04D099
:102CD00005EB49132022C3F8082B1AF4005F05D036
:102CE00005EB49134FF40052C3F8082B09F1010911
:102CF0004FEA5808B8F1000F3FF449AF18F0010F40
:102D0000F4D05FFA89FB5946206801F020FB824627
:102D100010F0010FB8D11AF0080FBFD11AF0100F40
:102D200004D005EB49131022C3F8082B1AF0020F48
:102D3000CBD06B6913F0800FBAD07B6843F480630B
:102D40007B60B5E709EBC90304EB8303002283F83A
:102D500057225946204602F0D7FDB1E7206801F01E
:102D6000EEFA8046B14625E05946204602F088FD3D
:102D70001AF0080F04D005EB49130822C3F80829FC
:102D80001AF0100F04D005EB49131022C3F80829DC
:102D90001AF0400F04D005EB49134022C3F808296C
:102DA0001AF0020F40D11AF0800F59D109F1010930
:102DB0004FEA5808B8F1000F3FF4F0AE18F0010FD9
:102DC000F4D05FFA89FB5946206801F0C9FA8246BF
:102DD00010F0010FCCD009F00F03012101FA03F22A
:102DE0007B6B23EA02037B6305EB4913C3F80819E5
:102DF000A3798B42B8D109EBC90304EB8303D969EA
:102E00001A6A0A441A62B9F1000FADD109EBC9037D
:102E100004EB83035B6A002BA6D104F29C420121E0
:102E2000206801F0F5FA9FE74946284600F046FE83
:102E300009EBC90304EB8303DB7D012B05D005EB14
:102E400049130222C3F80829ADE709EBC90304EBD3
:102E500083030022DA755946204602F05BFDEEE757
:102E600049462046FFF71EFBA0E77B6823F00103DD
:102E70007B6094F8CC34012B08D0204602F03EFD54
:102E80002268536903F0004353618DE6002184F802
:102E9000CC14204600F03EF9F2E7204602F016FD81
:102EA0008DE67B6823F001037B601021206800F031
:102EB00005FE1AE005EB46134FF67F31C3F80819FB
:102EC000D3F8002922F40012C3F80029C3F8081B24
:102ED000D3F8002B22F40012C3F8002BD3F8002BF8
:102EE00042F00062C3F8002B01362379B342E1D8E7
:102EF000FB6943F00113FB61E37BDBB1D7F884305E
:102F000043F00B03C7F884307B6C43F00B037B6406
:102F1000D5F8003823F4FE63C5F8003804F29C426B
:102F2000A179206801F074FA2268536903F4805390
:102F3000536150E67B6943F4005343F02B037B61FC
:102F40003B6943F00B033B61E2E7206801F050FA74
:102F5000206800F0CDFEE071266800F0DBFB014642
:102F6000E279304600F02CFD204602F09AFC2268FF
:102F7000536903F40053536134E6204602F08BFC9E
:102F80002268536903F00803536132E6013623795E
:102F9000B3420CD906EBC60304EB830393F8573214
:102FA000012BF3D1F1B22046FFF793FDEEE7206845
:102FB00001F0B9F910F4801F25D1206801F0B3F9B0
:102FC00010F4001F59D0012326E001362379B342C3
:102FD0001BD905EB4613D3F8002906EBC60304EB17
:102FE00083031B7E012BF0D1002AEEDA06EBC60329
:102FF00004EB83030122DA7566F07F01C9B2204633
:10300000FFF767FDE1E70126E0E72268536903F473
:1030100080135361D1E7013322799A4228D905EB15
:103020004312D2F8001B03EBC30204EB820292F8B6
:103030005822012AEFD10029EDDA01F48031D4F8C9
:10304000D42402F001029142E5D103EBC30204EB68
:103050008202012182F85712AA6942F08002AA6115
:103060006A6912F0800FD6D17B6843F400737B60ED
:103070002268536903F400135361206801F053F987
:1030800010F0804F10D1206801F04DF910F0040FBE
:103090003FF442AD23685D6815F0040F0DD122683E
:1030A00053682B43536037E5204602F039FC226811
:1030B000536903F080435361E5E7204602F036FC94
:1030C000EDE710B40468606A29B940EA0240A062E2
:1030D000002010BC70478C46A36A00EB134000230D
:1030E00008E003F1400104EB8101496800EB114065
:1030F0000133DBB20CF1FF318B42F2D340EA0240E4
:103100000CF13F0104EB81014860E1E7036859627B
:103110000020704770470000002800F0E08170B583
:1031200082B00446036813F0010F3BD09F4B9B68AD
:1031300003F00C03042B2CD09C4B9B6803F00C0376
:10314000082B21D06368B3F5803F4FD0B3F5A02F93
:1031500052D0964B1A6822F480321A601A6822F410
:1031600080221A606368002B50D0FEF759FB054699
:103170008E4B1B6813F4003F14D1FEF751FB401B2C
:103180006428F5D90320B1E1884B5B6813F4800F04
:10319000D8D0864B1B6813F4003F03D06368002B24
:1031A00000F09F81236813F0020F54D07F4B9B687F
:1031B00013F00C0F3ED07D4B9B6803F00C03082BE3
:1031C00033D0E368002B68D0794B01221A60FEF7F8
:1031D00027FB0546754B1B6813F0020F54D1FEF711
:1031E0001FFB401B0228F5D903207FE16F4A1368BB
:1031F00043F480331360B5E76C4B1A6842F48022C5
:103200001A601A6842F480321A60ABE7FEF708FBD6
:103210000546664B1B6813F4003FC3D0FEF700FB66
:10322000401B6428F5D9032060E1604B5B6813F410
:10323000800FC6D15D4B1B6813F0020F03D0E3680B
:10324000012B40F05081594A136823F0F80321699B
:1032500043EAC1031360236813F0080F42D0636987
:103260006BB3534B0122C3F8802EFEF7D9FA054603
:103270004E4B5B6F13F0020F34D1FEF7D1FA401BB7
:103280000228F5D9032031E1484A136823F0F803F6
:10329000216943EAC1031360DDE7454B00221A6050
:1032A000FEF7BEFA0546414B1B6813F0020FD2D061
:1032B000FEF7B6FA401B0228F5D9032016E13C4B75
:1032C0000022C3F8802EFEF7ABFA0546374B5B6F42
:1032D00013F0020F06D0FEF7A3FA401B0228F5D91F
:1032E000032003E1236813F0040F77D02F4B1B6CEE
:1032F00013F0805F33D1002301932C4B1A6C42F002
:1033000080521A641B6C03F080530193019B0125CA
:10331000284B1B6813F4807F23D0A368012B34D083
:10332000052B38D0214B1A6F22F001021A671A6F51
:1033300022F004021A67A368002B3DD0FEF770FA52
:1033400006461A4B1B6F13F0020F46D1FEF768FAC0
:10335000801B41F288339842F3D90320C6E0002550
:10336000D6E7144A136843F480731360FEF758FAE3
:103370000646104B1B6813F4807FCED1FEF750FA3F
:10338000801B0228F5D90320B0E0084A136F43F0F0
:1033900001031367CFE7054B1A6F42F004021A6767
:1033A0001A6F42F001021A67C5E700BF00380240F9
:1033B0000000474200700040FEF732FA0646524BCA
:1033C0001B6F13F0020F08D0FEF72AFA801B41F2A0
:1033D00088339842F3D9032088E0EDB9A369002B24
:1033E00000F08380484A926802F00C02082A51D00B
:1033F000022B17D0454B00221A66FEF711FA04463D
:10340000414B1B6813F0007F42D0FEF709FA001B06
:103410000228F5D9032069E03B4A136C23F080535E
:103420001364DBE7394B00221A66FEF7F9F905460B
:10343000354B1B6813F0007F06D0FEF7F1F9401BF7
:103440000228F5D9032051E0E369226A1343626A36
:1034500043EA8213A26A5208013A43EA0243E26A4B
:1034600043EA0263284A5360284B01221A66FEF79A
:10347000D7F90446244B1B6813F0007F06D1FEF7F2
:10348000CFF9001B0228F5D903202FE000202DE002
:1034900000202BE0012B2BD01B4B5B6803F4800139
:1034A000E269914226D103F03F02216A8A4223D188
:1034B000616A47F6C0721A40B2EB811F1ED103F455
:1034C0004031A26A5208013AB1EB024F18D103F021
:1034D0007063E26AB3EB026F14D1002006E00120B2
:1034E0007047012002E0012000E0002002B070BD22
:1034F0000120FBE70120F9E70120F7E70120F5E7CC
:103500000120F3E70120F1E70038024000004742C4
:1035100008B5254B9B6803F00C03042B3FD0082B08
:103520003FD1214B5A6802F03F025B6813F4800FD1
:1035300012D01D4B5968C1F388111C480023A1FB10
:103540000001FCF75DFE184B5B68C3F301430133D8
:103550005B00B0FBF3F025E0134B5968C1F3881C06
:103560004FEA4C11B1EB0C006EEB0E0E4FEA8E13CE
:1035700043EA90638101091A63EB0E03DB0043EA1F
:103580005173C90011EB0C0C43F1000399020023A5
:103590004FEA8C2041EA9C51FCF732FED3E7034806
:1035A00000E0034808BD00BF0038024040787D01BC
:1035B0000024F400002800F09B8070B50D460446FE
:1035C0004F4B1B6803F007038B4208D2CBB24C4A27
:1035D0001370136803F007038B4240F08B8023685D
:1035E00013F0020F17D013F0040F04D0454A93686C
:1035F00043F4E0539360236813F0080F04D0414A6A
:10360000936843F4604393603E4A936823F0F00369
:10361000A1680B439360236813F0010F32D06368F5
:10362000012B21D09A1E012A25D9364A126812F0A0
:10363000020F61D033498A6822F0030213438B6082
:10364000FEF7EEF806462F4B9B6803F00C0362680A
:10365000B3EB820F16D0FEF7E3F8801B41F28833FC
:103660009842F0D9032042E0264A126812F4003F43
:10367000E0D101203BE0234A126812F0007FD9D14B
:10368000012034E01E4B1B6803F00703AB4207D94F
:10369000EAB21B4B1A701B6803F00703AB422DD133
:1036A000236813F0040F06D0164A936823F4E053FE
:1036B000E1680B439360236813F0080F07D0114AA9
:1036C000936823F46043216943EAC1039360FFF7E1
:1036D0001FFF0C4B9B68C3F303130B4AD35CD8400A
:1036E0000A4B18600A4B1868FEF74EF8002070BDB0
:1036F000012070470120FAE70120F8E70120F6E7F2
:10370000003C024000380240A0B900080000002040
:1037100008000020014B1868704700BF000000201F
:1037200030B583B00446036813F0050F06D1236853
:1037300013F0020F2ED1002003B030BD4A4B0022FF
:103740009A66FEF76DF80546484B1B6813F0006F4C
:1037500006D0FEF765F8431B022BF5D90320EBE7F3
:103760006268A3681B0743EA8213404AC2F88430A8
:103770003D4B01229A66FEF753F805463B4B1B680A
:1037800013F0006FD3D1FEF74BF8431B022BF5D992
:103790000320D1E700230193344B1A6C42F080528E
:1037A0001A641B6C03F080530193019B304A136829
:1037B00043F480731360FEF733F805462C4B1B6807
:1037C00013F4807F06D1FEF72BF8431B022BF5D9AB
:1037D0000320B1E7254B1B6F13F4407314D0E2684C
:1037E00002F440729A420FD0204B1A6F22F44072BA
:1037F0001D490120C1F8400E0020C1F8400E1A6793
:103800001B6F13F0010F13D1E36803F44072B2F59C
:10381000407F1ED0154A936823F4F8139360134930
:103820000B6FE268C2F30B0213430B67002083E7C0
:10383000FDF7F6FF05460D4B1B6F13F0020FE3D1AA
:10384000FDF7EEFF401B41F288339842F3D9032085
:1038500072E706498A6822F4F81223F0704323F4D1
:10386000407313438B60DAE70000474200380240A0
:1038700000700040012801D000207047154B9B6864
:1038800013F4000302D01BB313487047114B5B685D
:1038900013F4800F14D00F4B5B6803F03F030F4805
:1038A000B0FBF3F30B4AD2F88400C0F3881003FB9B
:1038B00000F0D2F88430C3F30273B0FBF3F070472A
:1038C000044B5B6803F03F030548B0FBF3F3E9E703
:1038D00000207047003802400080BB0040787D0126
:1038E0000024F40082B000230193019B0133019373
:1038F000019BB3F1706F15D80369002BF5DA002333
:103900000193036943F001030361019B01330193B8
:10391000019BB3F1706F08D8036913F0010FF4D164
:10392000002000E0032002B070470320FBE784B0D2
:1039300010B5044603A880E80E009DF81130012B55
:1039400021D1A36B23F48033A363E36823F48403BE
:1039500023F04003E360E36823F44013E3609DF841
:103960001830012B0AD02046FFF7BCFF9DF80E301F
:10397000012B1CD0BDE8104004B07047E36843F44D
:103980008013E360EFE7E36843F04003E360204621
:10399000FFF7A8FF9DF8153023B9A36B43F48033DC
:1039A000A363E3E7A36B23F48033A363DEE7A36899
:1039B00043F00603A360A36843F02003A360D9E7A4
:1039C000022A0AD00921C26822F47052C260C36878
:1039D00043EA8123C36000207047234B0B44234AF2
:1039E00093422FD9224B0B44224A93422CD9A1F562
:1039F0007403A3F51053204A934227D9A1F183738E
:103A0000A3F5E7431D4A934222D31D4B0B441D4AA5
:103A100093421FD91C4B0B441C4A93421CD31C4B92
:103A20000B441C4A934219D3A1F1B773A3F5585321
:103A3000194A934214D3194B0B44194A934211D299
:103A40000721C0E70F21BEE70E21BCE70D21BAE731
:103A50000C21B8E70B21B6E70A21B4E70921B2E748
:103A60000821B0E70621AEE7405327FFFF340C00E2
:103A7000401E1BFF3F420F007F4F120020D6130055
:103A800060B6E5FE5FE3160000D3CEFE40771B0074
:103A9000C05BB3FEC091210020753800E05459FE90
:103AA000E09C4100836843F001038360002070477D
:103AB000836823F0010383600020704782B00023F5
:103AC0000193019B01330193019BB3F1706F15D8F2
:103AD0000369002BF5DA00230193890141F02001ED
:103AE0000161019B01330193019BB3F1706F08D811
:103AF000036913F0200FF4D1002000E0032002B08E
:103B000070470320FBE782B000230193019B013340
:103B10000193019BB3F1706F13D80369002BF5DAA1
:103B20000023019310230361019B01330193019B47
:103B3000B3F1706F08D8036913F0100FF4D10020AF
:103B400000E0032002B070470320FBE7D0F8003804
:103B50001943C0F8001800207047000084B0F8B581
:103B6000044607A880E80E00002306E003F14002A7
:103B700004EB82020021516001330E2BF6D99DF82F
:103B8000266006BBD4F8043843F00203C4F80438B6
:103B9000A36B43F40013A363A36B23F40023A36379
:103BA000A36B23F48023A3630023C4F8003E9DF895
:103BB0002130012B15D19DF81F306BB90021204613
:103BC000FFF7C4FF11E0A36B23F40013A363A36BFF
:103BD00043F40023A363E7E701212046FFF7B6FF84
:103BE00003E003212046FFF7B1FF10212046FFF735
:103BF00065FF054600B101252046FFF784FF00B1AF
:103C0000012504F5006C0023CCF81030CCF81430FA
:103C1000CCF81C300AE0CBB94FF00060C2F80009C4
:103C200000220A614FF67F328A6001339DF81C1032
:103C3000994210D904EB431202F51061D2F8000941
:103C40000028E8DB0020C2F80009E9E74FF09040C7
:103C5000C2F80009E4E700230AE0BBB14FF0904747
:103C6000C2F8007B002202614FF67F32826001338E
:103C7000994210D904EB431202F53060D2F8007B70
:103C8000002FEADB0027C2F8007BEBE74FF000676C
:103C9000C2F8007BE6E7DCF8103023F48073CCF840
:103CA00010300023A3616FF0804363619DF81E30E4
:103CB0001BB9A36943F01003A361A2690B4B134323
:103CC000A3619DF822301BB1A36943F00803A361EF
:103CD000012E04D02846BDE8F84004B07047A3691F
:103CE00043F0804343F00403A361F3E700383C80D2
:103CF000D0F8083813F0060307D0022B07D0062BA4
:103D000001D00F207047022070470020704702202A
:103D1000704710B591F800C04B78012B23D000F507
:103D2000006ED0F81C380CF00F040122A24043EAC8
:103D30000243C0F81C3800EB4C10D0F8003B13F4E1
:103D4000004F0ED1D0F8003B8A68C2F30A0209790D
:103D500042EA8142134343F0805343F40043C0F8E6
:103D6000003B002010BDD0F81C280CF00F0E03FA09
:103D70000EF39BB21343C0F81C3800EB4C10D0F884
:103D8000003913F4004FECD1D0F800398A68C2F33F
:103D90000A02097942EA814242EA8C5C43EA0C0356
:103DA00043F0805343F40043C0F80039D9E70000E2
:103DB00030B40B784A78012A26D000EB4313D3F8AD
:103DC000002B002A52DBD0F83C480A7802F00F02A0
:103DD0004FF0010C0CFA02F224EA0242C0F83C282F
:103DE000D0F81C28097801F00F010CFA01FC22EA36
:103DF0000C42C0F81C28D3F8001B234A0A40C3F821
:103E0000002B002030BC704700EB4313D3F800298F
:103E1000002A1EDBD0F83C580A7802F00F02012479
:103E200004FA02F292B225EA0202C0F83C28D0F865
:103E30001C28097801F00F018C40A4B222EA040486
:103E4000C0F81C48D3F80019104A0A40C3F80029EA
:103E5000D7E7D3F8002942F00062C3F80029D3F86D
:103E6000002942F08042C3F80029D3E7D3F8002BA1
:103E700042F00062C3F8002BD3F8002B42F08042DE
:103E8000C3F8002B9FE700BF0078F3EF007833EC16
:103E900010B483B0024600230193487801280AD069
:103EA0000B7802EB4313D3F8000B00282CDB002027
:103EB00003B010BC70470B7802EB4313D3F80049F2
:103EC000002C01DB0020F3E7D3F8004944F0006444
:103ED000C3F800490B7802EB4313D3F8004944F0D0
:103EE0008044C3F80049019B01330193019C42F2D5
:103EF00010739C42DCD80B7802EB4313D3F80039E3
:103F0000002BF0DB0020D3E7D3F8000B40F000607B
:103F1000C3F8000B0B7802EB4313D3F8000B40F00F
:103F20008040C3F8000B019B01330193019842F2DA
:103F30001073984208D80B7802EB4313D3F8003B78
:103F4000002BF0DB0020B3E70120B1E710B59DF8AE
:103F5000084084B903334FEA930E4FF0000C08E099
:103F600000EB023303F5805351F8044B1C600CF155
:103F7000010CF445F4D3002010BD0000F0B583B06F
:103F80000C784B78012B2FD000EB441C0CF53063E0
:103F90001D69ED0CED041D611D6925F0FF5525F42B
:103FA000C0151D61002C40F0CF800C690CB18C68ED
:103FB0000C618C680C621D69C4F312042C431C61F3
:103FC0001C6944F400241C61012A00F0E0800B7994
:103FD000012B00F0E280DCF8003B43F00443CCF816
:103FE000003B002003B0F0BD0B6983BB00EB441322
:103FF000D3F8105925F0FF5525F4C015C3F8105912
:10400000D3F8105945F40025C3F81059D3F81059C6
:10401000ED0CED04C3F81059012A53D000EB441401
:10402000D4F8003943F00443C4F800390B79012B6C
:1040300071D00B69002BD4D0D0F834380A7802F054
:104040000F0101228A401343C0F83438C9E700EB5E
:10405000441303F510631D69ED0CED041D611D692A
:1040600025F0FF5525F4C0151D6184B90E698D68D2
:10407000AE4200D90D611D6945F400251D611D6921
:104080000E69C6F3120C45EA0C051D61C4E70D6903
:104090008E683544013DB5FBF6F51E69484F07EAC9
:1040A000C54C46EA0C061E610E79012EE7D11E6949
:1040B00026F0C0461E611E696D0705F0C0453543F8
:1040C0001D61DCE7CB691BB100EB4412C2F8143967
:1040D0000B79012B08D000EB4410D0F8003943F0E5
:1040E0000443C0F800397CE7D0F8083813F4807F27
:1040F00008D100EB4412D2F8003943F00053C2F863
:104100000039E8E700EB4412D2F8003943F080535D
:10411000C2F80039DFE7D0F8083813F4807F0CD1FB
:10412000D4F8003943F00053C4F8003900920B8AE8
:104130000A78C968FFF70AFF53E7D4F8003943F05B
:104140008053C4F80039F1E70C6954B91C698D68D3
:10415000C5F312052C431C611C6944F400241C6146
:1041600032E78D682C44013CB4FBF5F4A4B204FBA7
:1041700005F50D621D69124E06EAC4442C431C610C
:104180001C690D6AC5F312052C431C611CE7CA6843
:10419000002A3FF41CAF5A6119E7D0F8083813F42D
:1041A000807F06D1DCF8003B43F00053CCF8003BA5
:1041B00011E7DCF8003B43F08053CCF8003B0AE702
:1041C0000000F81F00B583B0844608464FEA920EFF
:1041D00002F00302002305E00CF58051096840F865
:1041E000041B01337345F7D39AB10CF5805CDCF8FE
:1041F000003001934FF0000C5FFA8CF3D900019B63
:10420000CB4000F8013B0CF1010C013A92B2002ABC
:10421000F2D103B05DF804FB0B784A78012A14D080
:1042200000EB4310D0F8002B002A06DB2BB1D0F8AE
:10423000003B23F08043C0F8003BD0F8003B43F440
:104240000013C0F8003B0020704700EB4310D0F88B
:104250000029002A06DB2BB1D0F8003923F0804377
:10426000C0F80039D0F8003943F40013C0F8003921
:10427000E9E70B784A78012A0ED000EB4310D0F81A
:10428000003B23F40013C0F8003B0B79023BDBB288
:10429000012B15D90020704700EB4310D0F80039EE
:1042A00023F40013C0F800390B79023BDBB2012B79
:1042B000F0D8D0F8003943F08053C0F80039E9E76E
:1042C000D0F8003B43F08053C0F8003BE2E7D0F861
:1042D000003823F4FE63C0F80038D0F80038090134
:1042E00001F4FE611943C0F8001800207047D0F8AF
:1042F000003E23F00303C0F8003ED0F8043823F05A
:104300000203C0F8043800207047D0F8003E23F0C4
:104310000303C0F8003ED0F8043843F00203C0F8AD
:104320000438002070474269806910407047D0F817
:10433000183800F50060C0691840000C7047D0F8CC
:10434000183800F50060C069184080B2704700EB73
:104350004111D1F8082B00F500604069104070470A
:1043600010B4D0F81048D0F8343801F00F02D34020
:10437000DB01DBB2234300EB411000F510608068E5
:10438000184010BC7047406900F00100704738B514
:104390000546C36823F0C043C360012913D019BB8D
:1043A000C36843F08043C36000240A20FDF73EFA4F
:1043B0000A342846FFF7E7FF08B1C72CF5D9C82C07
:1043C00014D0002038BDC36843F00053C3600024FC
:1043D0000A20FDF72BFA0A342846FFF7D4FF0128FC
:1043E000EDD0C72CF4D9EAE70120EBE70120E9E79B
:1043F000D0F8003923F4FF6323F00703C0F8003935
:10440000D0F8043843F48073C0F8043800207047B3
:1044100010B4046C144B9C4203D9D0F8003B002B21
:1044200016DB0024C0F8104BD0F8104B44F40024E5
:10443000C0F8104BD0F8104B44F01804C0F8104BE3
:10444000D0F8104B44F0C044C0F8104B012902D002
:10445000002010BC7047C0F8142BD0F8003B43F08C
:104460008023C0F8003BF3E70A30544F10B5D0F872
:10447000D43203F1B00250F822408CB100EB82003C
:1044800043687BB194F80002FF280DD09B6894F834
:10449000012221469847FF2384F80032002010BDF6
:1044A0000320FCE70020FAE70020F8E70A23038056
:1044B0000048704788000020F8B506460F4F82215B
:1044C000384600F041FC05460121384600F03CFC2E
:1044D00004468121384600F037FC0DB11022AA7144
:1044E0001CB1402222710022627118B14022027177
:1044F00000224271432333800048F8BD440000206D
:10450000F8B506460F4F8221384600F01DFC0546DF
:104510000121384600F018FC04468121384600F09D
:1045200013FC0DB11022AA711CB14022227100228D
:10453000627118B14022027100224271432333801C
:104540000048F8BD44000020F8B506460F4F822110
:10455000384600F0F9FB05460121384600F0F4FB2F
:1045600004468121384600F0EFFB0DB11022AA71FC
:104570001CB1002222710222627118B10022027164
:1045800002224271432333800048F8BD44000020DA
:1045900038B5D0F8D432B03350F8235095B1044632
:1045A00001F014FAC5F80C02D4F8D432B03304EB9D
:1045B00083046368DB6805F50371D5F80402984746
:1045C000002038BD0320FCE738B5D0F8C852D0F839
:1045D000D432B03350F8234084B301F00F0303EB1F
:1045E000830200EB820292694AB103EBC30C05EB34
:1045F0008C05ED69B2FBF5FC05FB1C2292B1002392
:10460000C4F81432D0F8D432B03300EB83004368DE
:104610001B69ABB10A4604F50471D4F80802984747
:10462000002038BD03EB830300EB830300249C616F
:104630002346224601F012FA2046F2E70320F0E773
:104640000020EEE7F0B583B0D0F8D43203F1B00229
:1046500050F8227000228DF80720ADF80420002FBA
:104660007BD004460D46097811F0600634D0202E28
:104670006CD1EA882AB311F0800F07D16B7887F8E4
:104680000032EA883F2A13D8D2B212E0B03300EBEE
:1046900083035B689B68394668789847EA88072AED
:1046A00028BF07223946204600F004FF002651E0CB
:1046B000402287F801223946204600F010FF0026EC
:1046C00048E0B03300EB830463689B68002229460E
:1046D0006878984700263DE06F780B2F31D8DFE8E7
:1046E00007F006393030303030303030162690F850
:1046F0009C32DBB2032B04D0294600F062FB032678
:1047000028E0022201A900F0D5FE3E4622E090F802
:104710009C32DBB2032B04D0294600F052FB032667
:1047200018E001220DF1070100F0C4FE12E090F83C
:104730009C32DBB2032B0DD0294600F042FB03264E
:1047400008E0294600F03DFB032603E0294600F07F
:1047500038FB0326304603B0F0BD0326FAE738B530
:104760000446812101F05AF90025258701212046C0
:1047700001F054F9A4F878518221204601F04EF955
:10478000A4F84C50A4F84E50D4F8D43203F1B0023F
:1047900054F822209AB1B03304EB83035B685B6862
:1047A0009847D4F8D432B03354F8230001F018F904
:1047B000D4F8D432B03344F82350C4F8BC520020AB
:1047C00038BD70B504464FF4077001F005F90028B4
:1047D00049D005464FF40772002101F079F9D4F869
:1047E000D432B03344F82350C4F8BC52237C002B9D
:1047F00041D14FF4007302228121204601F003F9D8
:10480000012626874FF4007302223146204601F02C
:10481000FAF8A4F878611023A4F84E300823032294
:104820008221204601F0EFF80123A4F84C30002645
:10483000C5F80462D4F8D432B03304EB83035B6868
:104840001B689847C5F81462C5F81862D5F80422A9
:1048500062B3257C1DBB4FF400730121204601F09B
:1048600005F9284670BDD4F8D432B033002244F89C
:1048700023200225F5E7402302228121204601F072
:10488000C2F801262687402302223146204601F045
:10489000BAF8A4F878611023A4F84E30BEE740239C
:1048A0000121204601F0E2F80025DAE70225D8E7E9
:1048B00039B1D0F8D432B03300EB8300416000202E
:1048C000704703207047D0F8D432B03350F823300B
:1048D0002BB1C3F80812C3F8102200207047032040
:1048E0007047D0F8D432B03350F823301BB1C3F83E
:1048F0000412002070470320704708B5D0F8D43266
:10490000B03350F823209AB1D2F814320BB1012001
:1049100008BD0123C2F81432D2F81032C362D2F8B3
:104920001032D2F80822812101F098F80020EFE738
:104930000320EDE710B5D0F8D432B03350F823207F
:1049400092B1047C44B94FF40073D2F804220121DF
:1049500001F08CF8204610BD4023D2F8042201213A
:1049600001F084F80024F5E70324F3E798B108B5D3
:1049700003460020C3F8B802C3F8C402C3F8D0024B
:1049800009B1C3F8B412012183F89C121A701846B9
:1049900000F0D2FF08BD0320704710B582B000239D
:1049A000ADF8063089B10446C0F8B812CB6A23B11D
:1049B0000DF106009847C4F8D002D4F8D83201337C
:1049C000C4F8D832002002B010BD0320FBE708B5C0
:1049D00001F011F808BD08B5D0F8B83213B11B6862
:1049E000984708BD0020FCE708B5D0F8B8325B68EE
:1049F000984700B908BD0320FCE738B5044600F22B
:104A0000AA25284600F0C9F90123C4F89432B4F865
:104A1000B032C4F8983294F8AA1201F01F03012BA7
:104A20000DD0022B10D02BB101F08001204600F0F8
:104A3000FDFF03E02946204600F084FB38BD2946EF
:104A4000204600F0BAFBF9E72946204600F0F7FBC4
:104A5000F4E7F8B50446012380F89C320023C0F83F
:104A600094324360C0F8A43280F8A032D0F8B83253
:104A7000DBB15B68DBB1002198470746C8B940232A
:104A800000221146204600F0BEFF0126A4F8646112
:104A90004025C4F860512B4600228021204600F0BA
:104AA000B2FFA68425623846F8BD0027E7E7002755
:104AB000E5E70327E3E701740020704790F89C3294
:104AC000DBB2042B04D090F89C32DBB280F89D322C
:104AD000042380F89C320020704790F89C32DBB2AF
:104AE000042B01D00020704790F89D32DBB280F893
:104AF0009C32F7E708B590F89C32DBB2032B01D06B
:104B0000002008BDD0F8B832002BF9D0DB69002BAB
:104B1000F6D09847F4E708B5D0F8D432AE3350F861
:104B200023205AB190F89C32DBB2032B01D0002035
:104B300008BD136A23B198470020F9E70320F7E77F
:104B40000020F5E708B5D0F8D432AE3350F8232072
:104B50005AB190F89C32DBB2032B01D0002008BD83
:104B6000536A23B198470020F9E70320F7E70020B4
:104B7000F5E70020704708B5012380F89C32D0F893
:104B8000B83223B15B680179984710B908BD00209D
:104B9000FCE70320FAE7002070470020704738B593
:104BA00004460D46002943D11346D0F89422032A27
:104BB00001D0084638BDD0F85C11D0F86021914290
:104BC00012D890F8AA3203F01F03012B17D0022B42
:104BD0001CD0284694F89C32DBB2032B1BD0204615
:104BE00000F094FC2846E5E7891AC0F85C118A4277
:104BF00028BF0A46194600F081FC2846DAE790F8FB
:104C0000AE12FFF7C8FF0028E9D1E3E790F8AE1233
:104C1000FFF7C3FFF7E700F1AE0354F823301A693A
:104C2000002ADCD0C4F8D4021B6920469847D6E796
:104C300001F07F01FFF7B1FF90B994F89C32DBB22D
:104C4000032BB7D100F1AE0354F823309A69002A40
:104C5000B0D0C4F8D4029B69294620469847A9E7FA
:104C60000020A7E738B504460D4600294BD113466E
:104C7000D0F89422022A07D094F8A00218B1002399
:104C800084F8A032284638BDC269016A8A420ED82B
:104C90008A4218D094F89C32DBB2032B27D08021B3
:104CA000204600F0C3FE204600F03BFCE4E7521A29
:104CB000C261194600F00BFC00231A461946204633
:104CC00000F0D4FED8E783699942E3D8D0F898225F
:104CD0009342DFD20022114600F0F9FB0021C4F814
:104CE00098120B460A46204600F0C0FEC4E7D4F8EE
:104CF000B832DA68002AD2D00022C4F8D422DB68A5
:104D000020469847CBE741F08001FFF746FF90B976
:104D100094F89C32DBB2032BB5D100F1AE0354F80A
:104D200023305A69002AAED0C4F8D4025B69294600
:104D300020469847A7E70020A5E703780A88134490
:104D40000B80037818447047428803789A4218D938
:104D500030B583B004460D46ADF806306288BDF824
:104D600006309A420AD90DF10601FFF7E6FF4378B3
:104D7000052BF3D18378AB42F0D100E0002003B0E3
:104D800030BD002070470346002002E00130C0B271
:104D900001331A78002AF9D170470B7803704B78E9
:104DA00043708B78CA7843EA022343800B794A79AF
:104DB00043EA022383808B79CA7943EA0223C380C2
:104DC000704710B50446802100F030FE00212046D7
:104DD00000F02CFE10BD30B583B004460D46002314
:104DE000ADF806304A88130A013B062B00F2AB806F
:104DF000DFE803F0041F33A9A98D9A00D0F8B4327C
:104E00001B680DF10601007C9847EA88002A00F033
:104E1000A380BDF80630002B00F099809A4228BF8D
:104E20001A46ADF806200146204600F043FB03B0C9
:104E300030BD037C43B9D0F8B8329B6A0DF106004F
:104E4000984702234370E0E7D0F8B832DB6A0DF1EF
:104E50000600984702234370D7E7D2B2052A52D8FA
:104E6000DFE802F003101D2A3744D0F8B4325B6843
:104E700023B10DF10601007C9847C6E72946FFF7EC
:104E8000A0FFD4E7D0F8B4329B6823B10DF106013E
:104E9000007C9847B9E72946FFF793FFC7E7D0F8AA
:104EA000B432DB6823B10DF10601007C9847ACE712
:104EB0002946FFF786FFBAE7D0F8B4321B6923B161
:104EC0000DF10601007C98479FE72946FFF779FF1F
:104ED000ADE7D0F8B4325B6923B10DF10601007C77
:104EE000984792E72946FFF76CFFA0E7D0F8B43265
:104EF0009B6923B10DF10601007C984785E729469F
:104F0000FFF75FFF93E72946FFF75BFF8FE7037C1F
:104F100033B9D0F8B8325B6B0DF10600984774E7EF
:104F20002946FFF74EFF82E7037C43B9D0F8B83239
:104F30001B6B0DF1060098470723437065E7294670
:104F4000FFF73FFF73E72946FFF73BFF6FE729466F
:104F50002046FFF736FF6AE7204600F0D7FA66E7FB
:104F600038B504468B88FBB9CB88EBB94B887F2BCF
:104F70001AD803F07F0590F89C32DBB2032B0CD0DB
:104F800080F89E52294600F061FD204600F0BEFAEE
:104F900035B1022384F89C3209E0FFF712FF06E0E6
:104FA000012384F89C3202E02046FFF70AFF38BD57
:104FB00070B504460E468D782F4B1D70012D10D80C
:104FC00090F89C32DBB2022B0FD0032B26D0FFF7D8
:104FD000F8FE294B19782046FFF706FD03252846E1
:104FE00070BDFFF7EEFE0325F9E7A5B14560294640
:104FF000FFF7F1FC054638B131462046FFF7E1FEE8
:10500000022384F89C32EAE7204600F07FFA03236B
:1050100084F89C32E3E700F079FAE0E7CDB141682B
:105020008D4225D0C9B2FFF7DFFC134B19786160C0
:105030002046FFF7D0FC0546B0B131462046FFF7C9
:10504000C0FE21792046FFF7CFFC022384F89C3272
:10505000C5E7022380F89C3245602946FFF7C4FC6F
:10506000204600F053FABAE7204600F04FFAB6E7C0
:1050700000F04CFA0025B2E72414002008B5CB88D4
:10508000012B0BD190F89C32DBB2022B09D9032BF8
:1050900009D10122011D00F00DFA01E0FFF791FE98
:1050A00008BD5BB213B9FFF78CFEF9E70146002398
:1050B00041F8083F012200F0FDF9F1E708B590F84A
:1050C0009C32013B022B12D8CB88022B0CD101233E
:1050D000C360D0F8A4320BB10323C360022200F1F5
:1050E0000C0100F0E7F908BDFFF76BFEFBE7FFF7E7
:1050F00068FEF8E708B54B88012B04D0022B07D0D7
:10510000FFF75FFE08BDC0F8A43200F0FFF9F9E731
:105110008B881B0A80F8A03200F0F8F9F2E708B596
:1051200090F89C32013B022B09D84B88012B00D010
:1051300008BD0023C0F8A43200F0E8F9F8E7FFF753
:1051400040FEF5E738B50C7804F06004202C06D05A
:10515000402C04D06CB1FFF734FE002407E0D0F8F7
:10516000D432AE3350F823309B689847044620462B
:1051700038BD4D78092D1DD8DFE805F012191C1631
:105180001C08051C0F0BFFF726FEF0E7FFF7E8FEF3
:10519000EDE7FFF70DFF0446E9E7FFF76FFFE6E7EE
:1051A000FFF78CFF2C46E2E7FFF7A4FFDFE7FFF7EE
:1051B000B6FFDCE7FFF705FED9E770B505460C46FC
:1051C0000B7803F06003202B07D0402B05D023B1D0
:1051D000FFF7F7FD0026304670BD95F89C32013B85
:1051E000022B26D82179012905D921462846FFF727
:1051F000E8FD0026EFE72846FFF7CDFC68B900F18F
:10520000AE0255F82220916889B1C5F8D40293689E
:10521000214628469847064600E00326E388002BEF
:10522000D9D1002ED7D1284600F070F9D3E7032654
:10523000F4E721462846FFF7C4FD0026CBE72DE919
:10524000F04106460D468B88DFB20C7804F060040E
:10525000202C08D0402C06D0DCB1FFF7B2FD002492
:105260002046BDE8F08139463046FFF796FC0446FB
:10527000002840F0F880C6F8D40200F1AE0356F8DA
:1052800023309B68002BEBD02946304698470446D4
:10529000E6E791F80180B8F1010F31D0B8F1030FC2
:1052A00005D0B8F1000F67D0FFF78BFDD8E790F875
:1052B0009C32DBB2022B04D0032B12D0FFF781FD0E
:1052C000CEE70FB1802F04D129463046FFF779FD94
:1052D000C6E7394600F0AAFB8021304600F0A6FB65
:1052E000BEE74B8823B91FB1802F01D0CB881BB1FB
:1052F000304600F00BF9B3E7394600F097FBF7E7CB
:1053000090F89C32DBB2022B04D0032B12D0FFF7B3
:1053100058FDA5E70FB1802F04D129463046FFF78D
:1053200050FD9DE7394600F081FB8021304600F0BA
:105330007DFB95E74B88002B92D117F07F0F17D19B
:10534000304600F0E3F839463046FFF726FC0028E7
:1053500086D1C6F8D40200F1AE0256F82220926837
:10536000002A00F08280294630469047044677E7BD
:10537000394600F063FBE3E790F89C22D2B2022AA0
:1053800005D0032A27D0FFF71CFD444668E70FB17C
:10539000802F13D113F0800F14D107F07F0707EB94
:1053A0008707B90001F5A8713144043100230B606F
:1053B0000222304600F07EF8444651E7FFF701FD37
:1053C00044464DE707F07F0707EB8707B900103128
:1053D00031440431EAE75BB2002B1FDB07F00F0218
:1053E00002EB820200EB8202B2F864211AB3002BB6
:1053F00025DB07F07F0303EB83039C0004F5A8740F
:10540000344404340FB1802F22D1002323600222C0
:105410002146304600F04EF8444621E707F00F02DF
:1054200002EB820200EB8202928C002ADFD1FFF7AE
:10543000C8FC444614E7FFF7C4FC444610E707F0F5
:105440007F0303EB83039C00103434440434D9E716
:105450003946304600F0A4FA10B101232360D6E7A4
:1054600000232360D3E70024FAE60446F8E600B3FD
:1054700070B50D4616460446FFF785FC0130430023
:10548000B3F5007F06D89BB233802B7003236B707B
:1054900002230AE04FF40073F6E7EA5401345A1C81
:1054A000D2B20021A9540233DBB22278002AF4D10F
:1054B00070BD704708B513460222C0F8942283617C
:1054C000C3610A46002100F0C9FA002008BD08B5F2
:1054D00013460A46002100F0C1FA002008BD08B5B5
:1054E00013460322C0F89422C0F85831C0F85C314A
:1054F0000A46002100F0BAFA002008BD08B513469C
:105500000A46002100F0B2FA002008BD08B50422C6
:10551000C0F8942200231A46194600F09FFA002092
:1055200008BD08B50522C0F8942200231A46194682
:1055300000F09CFA002008BD08B500220F49104871
:10554000FFF714FA70B90F490D48FFF726FA60B952
:105550000D490B48FFF7ACF950B90948FFF737FA86
:1055600048B908BDFBF74EFFEDE7FBF74BFFEFE750
:10557000FBF748FFF1E7FBF745FFF2E7A800002043
:10558000281400200C000020940000200020704708
:10559000002070470020704738B505460C460A8841
:1055A0001949FCF7B1F8194B1B88B3F5006F16D8F1
:1055B00022681344154A1380154B1B782BB9134BE3
:1055C0001B88144A128893420ED2134C2946204657
:1055D000FFF787F92046FFF7ADF9002038BD0B4BE8
:1055E0004FF400621A80E7E707490C4B1868FCF794
:1055F00071F8064A1388074909885B1A1380044B1F
:1056000001221A70E1E700BF1C0C00201A0C0020D8
:1056100004000020180C0020281400201C14002076
:1056200010B5064C002206492046FFF74CF9054903
:105630002046FFF756F9002010BD00BF28140020B7
:10564000041F002004170020094BD3F8BC32D3F804
:1056500014320BB10120704710B5054C0A460146C3
:105660002046FFF730F92046FFF747F910BD00BF8D
:105670002814002012230B8000487047C40000202B
:1056800004230B8000487047D80000200023934279
:105690001ED200B510E00CF1370C01F813C0000168
:1056A0004FEA430C0CF1010C4FF0000E01F80CE036
:1056B0000133DBB2934209D24FEA107CB0F1204FA4
:1056C000E9D20CF1300C01F813C0E8E75DF804FBF7
:1056D0007047000038B50B4BD3F8100AD3F8144AC2
:1056E000D3F8183AC01800D138BD074D0822A91CBC
:1056F000FFF7CCFF042205F112012046FFF7C6FF99
:10570000F2E700BF0070FF1FDC00002008B51A237D
:105710000B80FFF7DFFF014808BD00BFDC00002061
:1057200008B50A4628B905490548FFF7A0FE034811
:1057300008BD02490248FFF79AFEF8E70427002057
:10574000B8B9000810B50A46034C21460348FFF7D4
:105750008EFE204610BD00BF04270020D0B90008EF
:1057600008B50A4628B905490548FFF780FE0348F1
:1057700008BD02490248FFF77AFEF8E70427002037
:10578000E4B9000808B50A4628B905490548FFF7F5
:105790006EFE034808BD02490248FFF768FEF8E7BD
:1057A00004270020F0B900082DE9F04389B0002358
:1057B000039304930593069307930368B3F1A04FF3
:1057C00002D009B0BDE8F08300250195204C236B81
:1057D00043F001032363236B03F001030193019B57
:1057E0004FF4006303934FF00209CDF810904FF08F
:1057F0000308CDF818800A270797164E03A93046EC
:10580000FCF750FA4FF480530393CDF81090012326
:105810000593CDF81880079703A93046FCF742FAA4
:10582000636B43F0800363630295636C43F48043CE
:105830006364636C03F480430293029B2A46294607
:105840004320FCF719F84320FCF74EF8B9E700BFF6
:10585000003802400000024008B500F29C41D0F838
:10586000E004FFF7CAF808BD08B501EBC10300EB7F
:105870008303D3F86022D0F8E004FFF790F908BD65
:1058800008B501EBC10300EB83031A6AD0F8E0040A
:10589000FFF7E8F908BD08B5D0F8E004FFF72AF9EA
:1058A00008BD10B50446C17911B1022909D1012101
:1058B000D4F8E004FFF7FFF8D4F8E004FFF7C9F8E4
:1058C00010BDFBF79FFD0121F2E7000010B5044673
:1058D000D0F8E004FFF7F2F82268D2F8003E43F077
:1058E0000103C2F8003EE37A23B1034A136943F08F
:1058F0000603136110BD00BF00ED00E008B5D0F84D
:10590000E004FFF7EAF808BD08B5D0F8E004FFF7B7
:1059100019F908BD08B5D0F8E004FFF7FCF808BD98
:1059200008B5D0F8E004FFF724F908BD08B5D0F8B1
:10593000E004FFF720F908BD02780AB100207047A3
:1059400010B503461548C0F8E034C3F8C8024FF05C
:10595000A0430360042303710222C27100238371F8
:1059600042728372C37203738373C373FCF702FEC4
:1059700080B90A4C80212046FDF7C8FB4022002157
:105980002046FDF79EFB802201212046FDF799FB72
:10599000002010BDFBF736FDEBE700BF0429002017
:1059A000D0F8C83211F0800F08D101F07F0101EB6F
:1059B000C10103EB810191F85602704701F07F01AC
:1059C00001EBC10103EB8101887D704708B5D0F878
:1059D000C802FCF7D3FF08BD00487047E82D00203F
:1059E0007047032805D8DFE800F005040205012010
:1059F00070470320704708B5D0F8C802FCF73BFE9B
:105A0000FFF7EFFF08BD08B594461A466346D0F885
:105A1000C802FCF710FFFFF7E4FF08BD08B5D0F897
:105A2000C802FCF74EFFFFF7DCFF08BD08B5D0F851
:105A3000C802FCF7D1FFFFF7D4FF08BD08B5D0F8C6
:105A4000C802FDF70CF8FFF7CCFF08BD08B5D0F889
:105A5000C802FCF7DDFEFFF7C4FF08BD08B5D0F8AB
:105A6000C802FCF794FFFFF7BCFF08BD08B5D0F8EB
:105A7000C802FCF75EFFFFF7B4FF08BD014B1868D2
:105A8000704700BFF800002070B50D4E0D4D761B1D
:105A9000B61006D0002455F8043B01349847A642BE
:105AA000F9D1094E094D761B05F066FFB61006D0F8
:105AB000002455F8043B01349847A642F9D170BD43
:105AC00008BE000808BE000810BE000808BE000896
:105AD000830730B548D0541E002A3FD0CAB20346CF
:105AE00001E0013C3AD303F8012B9D07F9D1032CC7
:105AF0002DD9CDB245EA05250F2C45EA054536D905
:105B0000A4F1100222F00F0C03F1200EE6444FEA3C
